{
  "contractName": "Program",
  "abi": [
    {
      "inputs": [
        {
          "internalType": "contract Token",
          "name": "_token",
          "type": "address"
        }
      ],
      "stateMutability": "nonpayable",
      "type": "constructor"
    },
    {
      "anonymous": false,
      "inputs": [
        {
          "indexed": true,
          "internalType": "string",
          "name": "inpid",
          "type": "string"
        },
        {
          "indexed": false,
          "internalType": "string",
          "name": "pid",
          "type": "string"
        }
      ],
      "name": "AddNewPartner",
      "type": "event"
    },
    {
      "anonymous": false,
      "inputs": [
        {
          "indexed": true,
          "internalType": "string",
          "name": "inpid",
          "type": "string"
        },
        {
          "indexed": false,
          "internalType": "string",
          "name": "pid",
          "type": "string"
        },
        {
          "indexed": false,
          "internalType": "string",
          "name": "pName",
          "type": "string"
        },
        {
          "indexed": false,
          "internalType": "uint256",
          "name": "amount",
          "type": "uint256"
        }
      ],
      "name": "AddPartnerBalance",
      "type": "event"
    },
    {
      "anonymous": false,
      "inputs": [
        {
          "indexed": true,
          "internalType": "string",
          "name": "inpid",
          "type": "string"
        },
        {
          "indexed": false,
          "internalType": "string",
          "name": "pid",
          "type": "string"
        },
        {
          "indexed": false,
          "internalType": "string",
          "name": "pName",
          "type": "string"
        },
        {
          "indexed": true,
          "internalType": "address",
          "name": "user",
          "type": "address"
        },
        {
          "indexed": false,
          "internalType": "uint256",
          "name": "amount",
          "type": "uint256"
        }
      ],
      "name": "EarnToken",
      "type": "event"
    },
    {
      "anonymous": false,
      "inputs": [
        {
          "indexed": true,
          "internalType": "string",
          "name": "inpid",
          "type": "string"
        },
        {
          "indexed": false,
          "internalType": "string",
          "name": "pid",
          "type": "string"
        },
        {
          "indexed": false,
          "internalType": "string",
          "name": "pName",
          "type": "string"
        },
        {
          "indexed": true,
          "internalType": "address",
          "name": "user",
          "type": "address"
        },
        {
          "indexed": false,
          "internalType": "uint256",
          "name": "amount",
          "type": "uint256"
        }
      ],
      "name": "Redeem",
      "type": "event"
    },
    {
      "anonymous": false,
      "inputs": [
        {
          "indexed": true,
          "internalType": "address",
          "name": "user",
          "type": "address"
        },
        {
          "indexed": false,
          "internalType": "uint256",
          "name": "amount",
          "type": "uint256"
        }
      ],
      "name": "UserDeposit",
      "type": "event"
    },
    {
      "anonymous": false,
      "inputs": [
        {
          "indexed": true,
          "internalType": "address",
          "name": "user",
          "type": "address"
        },
        {
          "indexed": false,
          "internalType": "uint256",
          "name": "amount",
          "type": "uint256"
        }
      ],
      "name": "UserWithdraw",
      "type": "event"
    },
    {
      "inputs": [
        {
          "internalType": "string",
          "name": "",
          "type": "string"
        }
      ],
      "name": "partnerMap",
      "outputs": [
        {
          "internalType": "string",
          "name": "id",
          "type": "string"
        },
        {
          "internalType": "string",
          "name": "name",
          "type": "string"
        },
        {
          "internalType": "uint256",
          "name": "balance",
          "type": "uint256"
        },
        {
          "internalType": "bool",
          "name": "isActive",
          "type": "bool"
        }
      ],
      "stateMutability": "view",
      "type": "function",
      "constant": true
    },
    {
      "inputs": [],
      "name": "token",
      "outputs": [
        {
          "internalType": "contract Token",
          "name": "",
          "type": "address"
        }
      ],
      "stateMutability": "view",
      "type": "function",
      "constant": true
    },
    {
      "inputs": [
        {
          "internalType": "address",
          "name": "",
          "type": "address"
        }
      ],
      "name": "userMap",
      "outputs": [
        {
          "internalType": "address payable",
          "name": "wallet",
          "type": "address"
        },
        {
          "internalType": "uint256",
          "name": "balance",
          "type": "uint256"
        },
        {
          "internalType": "string",
          "name": "name",
          "type": "string"
        },
        {
          "internalType": "string",
          "name": "contact",
          "type": "string"
        },
        {
          "internalType": "bool",
          "name": "active",
          "type": "bool"
        }
      ],
      "stateMutability": "view",
      "type": "function",
      "constant": true
    },
    {
      "inputs": [
        {
          "internalType": "address",
          "name": "userAddress",
          "type": "address"
        }
      ],
      "name": "getUserBalance",
      "outputs": [
        {
          "internalType": "uint256",
          "name": "balance",
          "type": "uint256"
        }
      ],
      "stateMutability": "view",
      "type": "function",
      "constant": true
    },
    {
      "inputs": [],
      "name": "getMyBalance",
      "outputs": [
        {
          "internalType": "uint256",
          "name": "balance",
          "type": "uint256"
        }
      ],
      "stateMutability": "view",
      "type": "function",
      "constant": true
    },
    {
      "inputs": [
        {
          "internalType": "string",
          "name": "pid",
          "type": "string"
        }
      ],
      "name": "getPartnerBalance",
      "outputs": [
        {
          "internalType": "uint256",
          "name": "balance",
          "type": "uint256"
        }
      ],
      "stateMutability": "view",
      "type": "function",
      "constant": true
    },
    {
      "inputs": [
        {
          "internalType": "string",
          "name": "pid",
          "type": "string"
        }
      ],
      "name": "getPartnerActive",
      "outputs": [
        {
          "internalType": "bool",
          "name": "isActive",
          "type": "bool"
        }
      ],
      "stateMutability": "view",
      "type": "function",
      "constant": true
    },
    {
      "inputs": [
        {
          "internalType": "string",
          "name": "pid",
          "type": "string"
        }
      ],
      "name": "getPartnerName",
      "outputs": [
        {
          "internalType": "string",
          "name": "name",
          "type": "string"
        }
      ],
      "stateMutability": "view",
      "type": "function",
      "constant": true
    },
    {
      "inputs": [
        {
          "internalType": "string",
          "name": "pid",
          "type": "string"
        },
        {
          "internalType": "string",
          "name": "_name",
          "type": "string"
        }
      ],
      "name": "addPartner",
      "outputs": [],
      "stateMutability": "nonpayable",
      "type": "function"
    },
    {
      "inputs": [
        {
          "internalType": "string",
          "name": "pid",
          "type": "string"
        },
        {
          "internalType": "uint256",
          "name": "amount",
          "type": "uint256"
        }
      ],
      "name": "addPartnerBalance",
      "outputs": [],
      "stateMutability": "nonpayable",
      "type": "function"
    },
    {
      "inputs": [
        {
          "internalType": "string",
          "name": "pid",
          "type": "string"
        },
        {
          "internalType": "address payable",
          "name": "receiver",
          "type": "address"
        },
        {
          "internalType": "uint256",
          "name": "amount",
          "type": "uint256"
        }
      ],
      "name": "earnToken",
      "outputs": [],
      "stateMutability": "nonpayable",
      "type": "function"
    },
    {
      "inputs": [
        {
          "internalType": "uint256",
          "name": "amount",
          "type": "uint256"
        }
      ],
      "name": "userWithdrawToken",
      "outputs": [],
      "stateMutability": "nonpayable",
      "type": "function"
    },
    {
      "inputs": [
        {
          "internalType": "uint256",
          "name": "amount",
          "type": "uint256"
        }
      ],
      "name": "userDepositToken",
      "outputs": [],
      "stateMutability": "nonpayable",
      "type": "function"
    },
    {
      "inputs": [
        {
          "internalType": "uint256",
          "name": "amount",
          "type": "uint256"
        },
        {
          "internalType": "uint256",
          "name": "nonce",
          "type": "uint256"
        },
        {
          "internalType": "address",
          "name": "userAddress",
          "type": "address"
        },
        {
          "internalType": "bytes",
          "name": "signature",
          "type": "bytes"
        },
        {
          "internalType": "string",
          "name": "pid",
          "type": "string"
        }
      ],
      "name": "redeemToken",
      "outputs": [],
      "stateMutability": "nonpayable",
      "type": "function"
    },
    {
      "inputs": [],
      "name": "shutdown",
      "outputs": [],
      "stateMutability": "nonpayable",
      "type": "function"
    }
  ],
  "bytecode": "0x608060405234801561001057600080fd5b50604051612ca7380380612ca78339818101604052602081101561003357600080fd5b8101908080519060200190929190505050806000806101000a81548173ffffffffffffffffffffffffffffffffffffffff021916908373ffffffffffffffffffffffffffffffffffffffff16021790555033600160006101000a81548173ffffffffffffffffffffffffffffffffffffffff021916908373ffffffffffffffffffffffffffffffffffffffff16021790555050612bd2806100d56000396000f3fe608060405234801561001057600080fd5b50600436106100f55760003560e01c806371ded37811610097578063d98c3e5911610066578063d98c3e5914610a90578063dea7a1fb14610abe578063fc0c546a14610c44578063fc0e74d114610c8e576100f5565b806371ded37814610608578063a814c640146106d7578063bcacecea146107aa578063d19bee91146108de576100f5565b80634c738909116100d35780634c7389091461038557806353766990146103a35780635f5c7ccc146104885780636c1e878e146104b6576100f5565b80632bcc23f8146100fa5780634079b34a14610268578063477348921461032d575b600080fd5b61013c6004803603602081101561011057600080fd5b81019080803573ffffffffffffffffffffffffffffffffffffffff169060200190929190505050610c98565b604051808673ffffffffffffffffffffffffffffffffffffffff1673ffffffffffffffffffffffffffffffffffffffff168152602001858152602001806020018060200184151515158152602001838103835286818151815260200191508051906020019080838360005b838110156101c25780820151818401526020810190506101a7565b50505050905090810190601f1680156101ef5780820380516001836020036101000a031916815260200191505b50838103825285818151815260200191508051906020019080838360005b8381101561022857808201518184015260208101905061020d565b50505050905090810190601f1680156102555780820380516001836020036101000a031916815260200191505b5097505050505050505060405180910390f35b61032b6004803603604081101561027e57600080fd5b810190808035906020019064010000000081111561029b57600080fd5b8201836020820111156102ad57600080fd5b803590602001918460018302840111640100000000831117156102cf57600080fd5b91908080601f016020809104026020016040519081016040528093929190818152602001838380828437600081840152601f19601f82011690508083019250505050505050919291929080359060200190929190505050610e2b565b005b61036f6004803603602081101561034357600080fd5b81019080803573ffffffffffffffffffffffffffffffffffffffff169060200190929190505050611261565b6040518082815260200191505060405180910390f35b61038d611353565b6040518082815260200191505060405180910390f35b610486600480360360608110156103b957600080fd5b81019080803590602001906401000000008111156103d657600080fd5b8201836020820111156103e857600080fd5b8035906020019184600183028401116401000000008311171561040a57600080fd5b91908080601f016020809104026020016040519081016040528093929190818152602001838380828437600081840152601f19601f820116905080830192505050505050509192919290803573ffffffffffffffffffffffffffffffffffffffff1690602001909291908035906020019092919050505061139d565b005b6104b46004803603602081101561049e57600080fd5b81019080803590602001909291905050506116c7565b005b610606600480360360408110156104cc57600080fd5b81019080803590602001906401000000008111156104e957600080fd5b8201836020820111156104fb57600080fd5b8035906020019184600183028401116401000000008311171561051d57600080fd5b91908080601f016020809104026020016040519081016040528093929190818152602001838380828437600081840152601f19601f8201169050808301925050505050505091929192908035906020019064010000000081111561058057600080fd5b82018360208201111561059257600080fd5b803590602001918460018302840111640100000000831117156105b457600080fd5b91908080601f016020809104026020016040519081016040528093929190818152602001838380828437600081840152601f19601f8201169050808301925050505050505091929192905050506118cc565b005b6106c16004803603602081101561061e57600080fd5b810190808035906020019064010000000081111561063b57600080fd5b82018360208201111561064d57600080fd5b8035906020019184600183028401116401000000008311171561066f57600080fd5b91908080601f016020809104026020016040519081016040528093929190818152602001838380828437600081840152601f19601f820116905080830192505050505050509192919290505050611b68565b6040518082815260200191505060405180910390f35b610790600480360360208110156106ed57600080fd5b810190808035906020019064010000000081111561070a57600080fd5b82018360208201111561071c57600080fd5b8035906020019184600183028401116401000000008311171561073e57600080fd5b91908080601f016020809104026020016040519081016040528093929190818152602001838380828437600081840152601f19601f820116905080830192505050505050509192919290505050611c84565b604051808215151515815260200191505060405180910390f35b610863600480360360208110156107c057600080fd5b81019080803590602001906401000000008111156107dd57600080fd5b8201836020820111156107ef57600080fd5b8035906020019184600183028401116401000000008311171561081157600080fd5b91908080601f016020809104026020016040519081016040528093929190818152602001838380828437600081840152601f19601f820116905080830192505050505050509192919290505050611d07565b6040518080602001828103825283818151815260200191508051906020019080838360005b838110156108a3578082015181840152602081019050610888565b50505050905090810190601f1680156108d05780820380516001836020036101000a031916815260200191505b509250505060405180910390f35b610997600480360360208110156108f457600080fd5b810190808035906020019064010000000081111561091157600080fd5b82018360208201111561092357600080fd5b8035906020019184600183028401116401000000008311171561094557600080fd5b91908080601f016020809104026020016040519081016040528093929190818152602001838380828437600081840152601f19601f820116905080830192505050505050509192919290505050611e15565b60405180806020018060200185815260200184151515158152602001838103835287818151815260200191508051906020019080838360005b838110156109eb5780820151818401526020810190506109d0565b50505050905090810190601f168015610a185780820380516001836020036101000a031916815260200191505b50838103825286818151815260200191508051906020019080838360005b83811015610a51578082015181840152602081019050610a36565b50505050905090810190601f168015610a7e5780820380516001836020036101000a031916815260200191505b50965050505050505060405180910390f35b610abc60048036036020811015610aa657600080fd5b8101908080359060200190929190505050611f98565b005b610c42600480360360a0811015610ad457600080fd5b810190808035906020019092919080359060200190929190803573ffffffffffffffffffffffffffffffffffffffff16906020019092919080359060200190640100000000811115610b2557600080fd5b820183602082011115610b3757600080fd5b80359060200191846001830284011164010000000083111715610b5957600080fd5b91908080601f016020809104026020016040519081016040528093929190818152602001838380828437600081840152601f19601f82011690508083019250505050505050919291929080359060200190640100000000811115610bbc57600080fd5b820183602082011115610bce57600080fd5b80359060200191846001830284011164010000000083111715610bf057600080fd5b91908080601f016020809104026020016040519081016040528093929190818152602001838380828437600081840152601f19601f82011690508083019250505050505050919291929050505061223c565b005b610c4c6128b0565b604051808273ffffffffffffffffffffffffffffffffffffffff1673ffffffffffffffffffffffffffffffffffffffff16815260200191505060405180910390f35b610c966128d5565b005b60036020528060005260406000206000915090508060000160009054906101000a900473ffffffffffffffffffffffffffffffffffffffff1690806001015490806002018054600181600116156101000203166002900480601f016020809104026020016040519081016040528092919081815260200182805460018160011615610100020316600290048015610d705780601f10610d4557610100808354040283529160200191610d70565b820191906000526020600020905b815481529060010190602001808311610d5357829003601f168201915b505050505090806003018054600181600116156101000203166002900480601f016020809104026020016040519081016040528092919081815260200182805460018160011615610100020316600290048015610e0e5780601f10610de357610100808354040283529160200191610e0e565b820191906000526020600020905b815481529060010190602001808311610df157829003601f168201915b5050505050908060040160009054906101000a900460ff16905085565b600160009054906101000a900473ffffffffffffffffffffffffffffffffffffffff1673ffffffffffffffffffffffffffffffffffffffff163373ffffffffffffffffffffffffffffffffffffffff1614610ed1576040517f08c379a0000000000000000000000000000000000000000000000000000000008152600401808060200182810382526022815260200180612b546022913960400191505060405180910390fd5b6000809054906101000a900473ffffffffffffffffffffffffffffffffffffffff1673ffffffffffffffffffffffffffffffffffffffff166323b872dd3330846040518463ffffffff1660e01b8152600401808473ffffffffffffffffffffffffffffffffffffffff1673ffffffffffffffffffffffffffffffffffffffff1681526020018373ffffffffffffffffffffffffffffffffffffffff1673ffffffffffffffffffffffffffffffffffffffff1681526020018281526020019350505050602060405180830381600087803b158015610fad57600080fd5b505af1158015610fc1573d6000803e3d6000fd5b505050506040513d6020811015610fd757600080fd5b810190808051906020019092919050505050806002836040518082805190602001908083835b602083106110205780518252602082019150602081019050602083039250610ffd565b6001836020036101000a038019825116818451168082178552505050505050905001915050908152602001604051809103902060020160008282540192505081905550816040518082805190602001908083835b602083106110975780518252602082019150602081019050602083039250611074565b6001836020036101000a03801982511681845116808217855250505050505090500191505060405180910390207f537575ee5c7506cc6b81c579e363e68efebad6dc11af055539b9d176e2324a7a836002856040518082805190602001908083835b6020831061111c57805182526020820191506020810190506020830392506110f9565b6001836020036101000a038019825116818451168082178552505050505050905001915050908152602001604051809103902060010184604051808060200180602001848152602001838103835286818151815260200191508051906020019080838360005b8381101561119d578082015181840152602081019050611182565b50505050905090810190601f1680156111ca5780820380516001836020036101000a031916815260200191505b5083810382528581815460018160011615610100020316600290048152602001915080546001816001161561010002031660029004801561124c5780601f106112215761010080835404028352916020019161124c565b820191906000526020600020905b81548152906001019060200180831161122f57829003601f168201915b50509550505050505060405180910390a25050565b6000600160009054906101000a900473ffffffffffffffffffffffffffffffffffffffff1673ffffffffffffffffffffffffffffffffffffffff163373ffffffffffffffffffffffffffffffffffffffff1614611309576040517f08c379a0000000000000000000000000000000000000000000000000000000008152600401808060200182810382526022815260200180612b546022913960400191505060405180910390fd5b600360008373ffffffffffffffffffffffffffffffffffffffff1673ffffffffffffffffffffffffffffffffffffffff168152602001908152602001600020600101549050919050565b6000600360003373ffffffffffffffffffffffffffffffffffffffff1673ffffffffffffffffffffffffffffffffffffffff16815260200190815260200160002060010154905090565b600160009054906101000a900473ffffffffffffffffffffffffffffffffffffffff1673ffffffffffffffffffffffffffffffffffffffff163373ffffffffffffffffffffffffffffffffffffffff1614611443576040517f08c379a0000000000000000000000000000000000000000000000000000000008152600401808060200182810382526022815260200180612b546022913960400191505060405180910390fd5b60006002846040518082805190602001908083835b6020831061147b5780518252602082019150602081019050602083039250611458565b6001836020036101000a038019825116818451168082178552505050505050905001915050908152602001604051809103902090506000600360008573ffffffffffffffffffffffffffffffffffffffff1673ffffffffffffffffffffffffffffffffffffffff16815260200190815260200160002090508282600201600082825403925050819055508281600101600082825401925050819055508373ffffffffffffffffffffffffffffffffffffffff16856040518082805190602001908083835b60208310611562578051825260208201915060208101905060208303925061153f565b6001836020036101000a03801982511681845116808217855250505050505090500191505060405180910390207f2a76994da68d25794966fee7742adea6533e2bd832dad4631d55bb852483681a878560010187604051808060200180602001848152602001838103835286818151815260200191508051906020019080838360005b838110156116005780820151818401526020810190506115e5565b50505050905090810190601f16801561162d5780820380516001836020036101000a031916815260200191505b508381038252858181546001816001161561010002031660029004815260200191508054600181600116156101000203166002900480156116af5780601f10611684576101008083540402835291602001916116af565b820191906000526020600020905b81548152906001019060200180831161169257829003601f168201915b50509550505050505060405180910390a35050505050565b6000600360003373ffffffffffffffffffffffffffffffffffffffff1673ffffffffffffffffffffffffffffffffffffffff16815260200190815260200160002090508181600101541015611784576040517f08c379a000000000000000000000000000000000000000000000000000000000815260040180806020018281038252601b8152602001807f457863656564204d617820617661696c61626c6520616d6f756e74000000000081525060200191505060405180910390fd5b8181600101600082825403925050819055506000809054906101000a900473ffffffffffffffffffffffffffffffffffffffff1673ffffffffffffffffffffffffffffffffffffffff1663a9059cbb33846040518363ffffffff1660e01b8152600401808373ffffffffffffffffffffffffffffffffffffffff1673ffffffffffffffffffffffffffffffffffffffff16815260200182815260200192505050602060405180830381600087803b15801561183e57600080fd5b505af1158015611852573d6000803e3d6000fd5b505050506040513d602081101561186857600080fd5b8101908080519060200190929190505050503373ffffffffffffffffffffffffffffffffffffffff167f98824d89d47225910d3e61aa38b640d29d58b43e2dc47b4d986a588c88e0a2a8836040518082815260200191505060405180910390a25050565b600160009054906101000a900473ffffffffffffffffffffffffffffffffffffffff1673ffffffffffffffffffffffffffffffffffffffff163373ffffffffffffffffffffffffffffffffffffffff1614611972576040517f08c379a0000000000000000000000000000000000000000000000000000000008152600401808060200182810382526022815260200180612b546022913960400191505060405180910390fd5b604051806080016040528083815260200182815260200160008152602001600115158152506002836040518082805190602001908083835b602083106119cd57805182526020820191506020810190506020830392506119aa565b6001836020036101000a03801982511681845116808217855250505050505090500191505090815260200160405180910390206000820151816000019080519060200190611a1c929190612aae565b506020820151816001019080519060200190611a39929190612aae565b506040820151816002015560608201518160030160006101000a81548160ff021916908315150217905550905050816040518082805190602001908083835b60208310611a9b5780518252602082019150602081019050602083039250611a78565b6001836020036101000a03801982511681845116808217855250505050505090500191505060405180910390207f632648e38d3d90abb3253db8185e5d0983693433266b3e87fba823a175c345d7836040518080602001828103825283818151815260200191508051906020019080838360005b83811015611b2a578082015181840152602081019050611b0f565b50505050905090810190601f168015611b575780820380516001836020036101000a031916815260200191505b509250505060405180910390a25050565b6000600160009054906101000a900473ffffffffffffffffffffffffffffffffffffffff1673ffffffffffffffffffffffffffffffffffffffff163373ffffffffffffffffffffffffffffffffffffffff1614611c10576040517f08c379a0000000000000000000000000000000000000000000000000000000008152600401808060200182810382526022815260200180612b546022913960400191505060405180910390fd5b6002826040518082805190602001908083835b60208310611c465780518252602082019150602081019050602083039250611c23565b6001836020036101000a0380198251168184511680821785525050505050509050019150509081526020016040518091039020600201549050919050565b60006002826040518082805190602001908083835b60208310611cbc5780518252602082019150602081019050602083039250611c99565b6001836020036101000a038019825116818451168082178552505050505050905001915050908152602001604051809103902060030160009054906101000a900460ff169050919050565b60606002826040518082805190602001908083835b60208310611d3f5780518252602082019150602081019050602083039250611d1c565b6001836020036101000a03801982511681845116808217855250505050505090500191505090815260200160405180910390206001018054600181600116156101000203166002900480601f016020809104026020016040519081016040528092919081815260200182805460018160011615610100020316600290048015611e095780601f10611dde57610100808354040283529160200191611e09565b820191906000526020600020905b815481529060010190602001808311611dec57829003601f168201915b50505050509050919050565b600281805160208101820180518482526020830160208501208183528095505050505050600091509050806000018054600181600116156101000203166002900480601f016020809104026020016040519081016040528092919081815260200182805460018160011615610100020316600290048015611ed75780601f10611eac57610100808354040283529160200191611ed7565b820191906000526020600020905b815481529060010190602001808311611eba57829003601f168201915b505050505090806001018054600181600116156101000203166002900480601f016020809104026020016040519081016040528092919081815260200182805460018160011615610100020316600290048015611f755780601f10611f4a57610100808354040283529160200191611f75565b820191906000526020600020905b815481529060010190602001808311611f5857829003601f168201915b5050505050908060020154908060030160009054906101000a900460ff16905084565b806000809054906101000a900473ffffffffffffffffffffffffffffffffffffffff1673ffffffffffffffffffffffffffffffffffffffff166370a08231336040518263ffffffff1660e01b8152600401808273ffffffffffffffffffffffffffffffffffffffff1673ffffffffffffffffffffffffffffffffffffffff16815260200191505060206040518083038186803b15801561203757600080fd5b505afa15801561204b573d6000803e3d6000fd5b505050506040513d602081101561206157600080fd5b8101908080519060200190929190505050101561207d57600080fd5b6000600360003373ffffffffffffffffffffffffffffffffffffffff1673ffffffffffffffffffffffffffffffffffffffff16815260200190815260200160002090506000809054906101000a900473ffffffffffffffffffffffffffffffffffffffff1673ffffffffffffffffffffffffffffffffffffffff166323b872dd3330856040518463ffffffff1660e01b8152600401808473ffffffffffffffffffffffffffffffffffffffff1673ffffffffffffffffffffffffffffffffffffffff1681526020018373ffffffffffffffffffffffffffffffffffffffff1673ffffffffffffffffffffffffffffffffffffffff1681526020018281526020019350505050602060405180830381600087803b15801561219c57600080fd5b505af11580156121b0573d6000803e3d6000fd5b505050506040513d60208110156121c657600080fd5b8101908080519060200190929190505050508181600101600082825401925050819055503373ffffffffffffffffffffffffffffffffffffffff167f35db3d768e685509e031bae369804ca7dc6656af739e079f1d3312cadc7b19d8836040518082815260200191505060405180910390a25050565b600160009054906101000a900473ffffffffffffffffffffffffffffffffffffffff1673ffffffffffffffffffffffffffffffffffffffff163373ffffffffffffffffffffffffffffffffffffffff16146122e2576040517f08c379a0000000000000000000000000000000000000000000000000000000008152600401808060200182810382526022815260200180612b546022913960400191505060405180910390fd5b6000600360008573ffffffffffffffffffffffffffffffffffffffff1673ffffffffffffffffffffffffffffffffffffffff168152602001908152602001600020905060006002836040518082805190602001908083835b6020831061235d578051825260208201915060208101905060208303925061233a565b6001836020036101000a038019825116818451168082178552505050505050905001915050908152602001604051809103902090506000151582600501600088815260200190815260200160002060009054906101000a900460ff1615151461242e576040517f08c379a000000000000000000000000000000000000000000000000000000000815260040180806020018281038252600d8152602001807f6e6f6e636520697320757365640000000000000000000000000000000000000081525060200191505060405180910390fd5b600182600501600088815260200190815260200160002060006101000a81548160ff02191690831515021790555060006124cc888830604051602001808481526020018381526020018273ffffffffffffffffffffffffffffffffffffffff1673ffffffffffffffffffffffffffffffffffffffff1660601b8152601401935050505060405160208183030381529060405280519060200120612994565b90508573ffffffffffffffffffffffffffffffffffffffff166124ef82876129ec565b73ffffffffffffffffffffffffffffffffffffffff1614612578576040517f08c379a00000000000000000000000000000000000000000000000000000000081526004018080602001828103825260108152602001807f5369676e6572206e6f74206d617463680000000000000000000000000000000081525060200191505060405180910390fd5b600088116125ee576040517f08c379a000000000000000000000000000000000000000000000000000000000815260040180806020018281038252600e8152602001807f616d6f756e74206973203c3d203000000000000000000000000000000000000081525060200191505060405180910390fd5b878360010154101561264b576040517f08c379a0000000000000000000000000000000000000000000000000000000008152600401808060200182810382526027815260200180612b766027913960400191505060405180910390fd5b60018260030160006101000a81548160ff02191690831515021790556126d9576040517f08c379a00000000000000000000000000000000000000000000000000000000081526004018080602001828103825260158152602001807f506172746e6572206973206e6f7420616374697665000000000000000000000081525060200191505060405180910390fd5b8782600201600082825401925050819055508783600101600082825403925050819055508573ffffffffffffffffffffffffffffffffffffffff16846040518082805190602001908083835b602083106127485780518252602082019150602081019050602083039250612725565b6001836020036101000a03801982511681845116808217855250505050505090500191505060405180910390207f10e08a34cca8f8b715b34aef59a016925c7466835e8d9449953444defae6910a86856001018c604051808060200180602001848152602001838103835286818151815260200191508051906020019080838360005b838110156127e65780820151818401526020810190506127cb565b50505050905090810190601f1680156128135780820380516001836020036101000a031916815260200191505b508381038252858181546001816001161561010002031660029004815260200191508054600181600116156101000203166002900480156128955780601f1061286a57610100808354040283529160200191612895565b820191906000526020600020905b81548152906001019060200180831161287857829003601f168201915b50509550505050505060405180910390a35050505050505050565b6000809054906101000a900473ffffffffffffffffffffffffffffffffffffffff1681565b600160009054906101000a900473ffffffffffffffffffffffffffffffffffffffff1673ffffffffffffffffffffffffffffffffffffffff163373ffffffffffffffffffffffffffffffffffffffff161461297b576040517f08c379a0000000000000000000000000000000000000000000000000000000008152600401808060200182810382526022815260200180612b546022913960400191505060405180910390fd5b3373ffffffffffffffffffffffffffffffffffffffff16ff5b60008160405160200180807f19457468657265756d205369676e6564204d6573736167653a0a333200000000815250601c01828152602001915050604051602081830303815290604052805190602001209050919050565b6000806000806129fb85612a73565b92509250925060018684848460405160008152602001604052604051808581526020018460ff1660ff1681526020018381526020018281526020019450505050506020604051602081039080840390855afa158015612a5e573d6000803e3d6000fd5b50505060206040510351935050505092915050565b60008060006041845114612a8657600080fd5b6020840151915060408401519050606084015160001a92508282829250925092509193909250565b828054600181600116156101000203166002900490600052602060002090601f016020900481019282601f10612aef57805160ff1916838001178555612b1d565b82800160010185558215612b1d579182015b82811115612b1c578251825591602001919060010190612b01565b5b509050612b2a9190612b2e565b5090565b612b5091905b80821115612b4c576000816000905550600101612b34565b5090565b9056fe4f6e6c792041646d696e2063616c6c2063616c6c20746869732066756e6374696f6e5573657220646f6e2774206861766520656e6f75676820746f6b656e20746f2072656465656d21a26469706673582212201c2f5fb59fe2d0631d977985b7cf1b3948595495cfc727f548560bc8c415fb7764736f6c634300060b0033",
  "immutableReferences": {},
  "source": "// SPDX-License-Identifier: MIT\npragma solidity >=0.4.22 <0.7.0;\n\nimport './Token.sol';\n\ncontract Program {\n    Token public token;\n    address payable admin;\n\n    event Redeem(string indexed inpid, string pid, string pName, address indexed user, uint amount);\n    event EarnToken(string indexed inpid, string pid, string pName, address indexed user, uint amount);\n    event UserWithdraw(address indexed user, uint amount);\n    event UserDeposit(address indexed user, uint amount);\n\n    event AddNewPartner(string indexed inpid, string pid);\n    event AddPartnerBalance(string indexed inpid, string pid, string pName, uint amount);\n\n    mapping(string => Partner) public partnerMap;\n    mapping(address => User) public userMap;\n\n    struct Partner {\n        string id;\n        string name;\n        uint balance;\n        bool isActive;\n    }\n\n    struct User {\n        address payable wallet;\n        uint balance;\n        string name;\n        string contact;\n        bool active;\n\n        mapping(uint256 => bool) usedNonces;\n    }\n\n    modifier onlyAdmin() {\n        require(msg.sender == admin, \"Only Admin call call this function\");\n        _;\n    }\n\n    function getUserBalance(address userAddress) public onlyAdmin view returns (uint balance){\n        return userMap[userAddress].balance;\n    }\n\n    function getMyBalance() public view returns (uint balance){\n        return userMap[msg.sender].balance;\n    }\n\n    function getPartnerBalance(string memory pid) public onlyAdmin view returns (uint balance) {\n        return partnerMap[pid].balance;\n    }\n\n    function getPartnerActive(string memory pid) public view returns (bool isActive) {\n        return partnerMap[pid].isActive;\n    }\n\n    function getPartnerName(string memory pid) public view returns (string memory name) {\n        return partnerMap[pid].name;\n    }\n\n    function addPartner(string memory pid, string memory _name) public onlyAdmin {\n        partnerMap[pid] = Partner({id : pid, name : _name, balance : 0, isActive : true});\n        emit AddNewPartner(pid, pid);\n    }\n\n    function addPartnerBalance(string memory pid, uint amount) public onlyAdmin {\n        token.transferFrom(msg.sender, address(this), amount);\n        partnerMap[pid].balance += amount;\n        emit AddPartnerBalance(pid, pid, partnerMap[pid].name, amount);\n    }\n\n    function earnToken(string memory pid, address payable receiver, uint amount) public onlyAdmin {\n        Partner storage sender = partnerMap[pid];\n        User storage user = userMap[receiver];\n\n        sender.balance -= amount;\n        user.balance += amount;\n\n        emit EarnToken(pid, pid, sender.name, receiver, amount);\n    }\n\n    function userWithdrawToken(uint amount) public {\n        User storage user = userMap[msg.sender];\n\n        require(user.balance >= amount, \"Exceed Max available amount\");\n\n        user.balance -= amount;\n        token.transfer(msg.sender, amount);\n\n        emit UserWithdraw(msg.sender, amount);\n    }\n\n    function userDepositToken(uint amount) public {\n        require(token.balanceOf(msg.sender) >= amount);\n\n        User storage user = userMap[msg.sender];\n        token.transferFrom(msg.sender, address(this), amount);\n\n        user.balance += amount;\n\n        emit UserDeposit(msg.sender, amount);\n    }\n\n    constructor(Token _token) public {\n        token = _token;\n        admin = msg.sender;\n    }\n\n    function redeemToken(uint256 amount, uint256 nonce, address userAddress, bytes memory signature, string memory pid) public onlyAdmin {\n        User storage user = userMap[userAddress];\n        Partner storage partner = partnerMap[pid];\n\n        require(user.usedNonces[nonce] == false, \"nonce is used\");\n        user.usedNonces[nonce] = true;\n\n        // this recreates the message that was signed on the client\n        bytes32 message = prefixed(keccak256(abi.encodePacked(amount, nonce, this)));\n\n        require(recoverSigner(message, signature) == userAddress, \"Signer not match\");\n\n        require(amount > 0, \"amount is <= 0\");\n        require(user.balance >= amount, \"User don't have enough token to redeem!\");\n        require(partner.isActive = true, \"Partner is not active\");\n\n        partner.balance += amount;\n        user.balance -= amount;\n\n        emit Redeem(pid, pid, partner.name, userAddress, amount);\n    }\n\n    /// signature methods. ref from https://solidity.readthedocs.io/en/v0.6.11/solidity-by-example.html#micropayment-channel\n    function splitSignature(bytes memory sig)\n    internal\n    pure\n    returns (uint8 v, bytes32 r, bytes32 s)\n    {\n        require(sig.length == 65);\n\n        assembly {\n        // first 32 bytes, after the length prefix.\n            r := mload(add(sig, 32))\n        // second 32 bytes.\n            s := mload(add(sig, 64))\n        // final byte (first byte of the next 32 bytes).\n            v := byte(0, mload(add(sig, 96)))\n        }\n        return (v, r, s);\n    }\n\n    function recoverSigner(bytes32 message, bytes memory sig)\n    internal\n    pure\n    returns (address)\n    {\n        (uint8 v, bytes32 r, bytes32 s) = splitSignature(sig);\n        return ecrecover(message, v, r, s);\n    }\n\n    /// builds a prefixed hash to mimic the behavior of eth_sign.\n    function prefixed(bytes32 hash) internal pure returns (bytes32) {\n        return keccak256(abi.encodePacked(\"\\x19Ethereum Signed Message:\\n32\", hash));\n    }\n\n    /// destroy the contract and reclaim the leftover funds.\n    function shutdown() public onlyAdmin {\n        selfdestruct(msg.sender);\n    }\n\n    function hashSeriesNumber(string memory series, uint256 number) internal pure returns (bytes32)\n    {\n        return keccak256(abi.encode(number, series));\n    }\n}\n\n",
  "sourcePath": "/Users/s09wsa5a/WebstormProjects/Reward/contracts/Program.sol",
  "compiler": {
    "name": "solc",
    "version": "0.6.11+commit.5ef660b1.Emscripten.clang"
  },
  "schemaVersion": "3.2.2",
  "updatedAt": "2020-07-16T13:53:02.669Z",
  "networkType": "ethereum",
  "devdoc": {
    "kind": "dev",
    "methods": {},
    "version": 1
  },
  "userdoc": {
    "kind": "user",
    "methods": {
      "shutdown()": {
        "notice": "destroy the contract and reclaim the leftover funds."
      }
    },
    "version": 1
  }
}